:020000040800F2
:10000000A8050020050100080D0100080F010008E7
:10001000110100081301000815010008000000008C
:1000200000000000000000000000000017010008B0
:1000300019010008000000001B0100081D01000854
:100040001F0100081F0100081F01000835150008E6
:100050001F0100081F0100081F0100081F01000800
:100060001F0100081F0100081F0100089D0D000866
:10007000BD0D0008DD0D0008FD0D00081D0E000877
:100080003D0E00085D0E00081F0100081F0100085A
:100090001F0100081F0100081F0100081F010008C0
:1000A0001F0100081F0100081F0100081F010008B0
:1000B0001F010008791900081F0100081F0100082E
:1000C0001F0100081F0100081F0100081F01000890
:1000D0001F0100082D1B00081F0100081F01000858
:1000E0001F0100081F0100081F010008DFF810D0E1
:1000F00000F098FC00480047B92A0008AFF30080E0
:10010000A80500200648804706480047FEE7FEE7AE
:10011000FEE7FEE7FEE7FEE7FEE7FEE7FEE7FEE7B7
:1001200019190008ED0000082DE9F05F05460020D0
:1001300092469B4688460646814640241BE0284658
:1001400041464746224600F022FB53465A46C01A13
:10015000914110D311461846224600F009FB2D1A92
:1001600067EB01084F4622460120002100F000FB0A
:1001700017EB00094E41201EA4F10104DFDC4846C4
:1001800031462A464346BDE8F09F30B505462A462B
:100190000B4612F8010B13F8014B08B1A042F8D03E
:1001A0001CB1002802D06D1CF1E7284630BD421C6E
:1001B00010F8011B0029FBD1801A704730B50546A5
:1001C0000020034600E05B1C934205D2EC5CC85C57
:1001D000201A01D1002CF6D130BD2DE9F05F9346F5
:1001E0000F4680460446002601F0FEFED0F800903F
:1001F000824614F8015B2DB100F0ECFA0068405D16
:10020000C007F6D12B2D02D02D2D1AD0641E00214F
:10021000CAF800105A463946204600F0DFFA014677
:1002200027B13868A04201D1C7F80080DAF8000091
:10023000022809D0CAF80090700505D54842BDE8EB
:10024000F09F46F48066E2E70846F8E780EA01029C
:1002500010B502F00043400022D04A001FD0010E2A
:1002600001EB1261C0F35600C2F3560240F40000E5
:1002700042F40002A0FB022000047F39140400D0E5
:10028000401C50EA124001D44000491EC2B20C0684
:1002900004EBD010401C4008802A02D003E000206C
:1002A00010BD20F00100002900DA0020184310BD25
:1002B00030B480EA010202F0004530F0004221F043
:1002C000004013D090B1C30DD40DC2F31601C0F39A
:1002D0001600E41A41F4000140F400027D3491421A
:1002E00001D3641C00E04900002C02DA30BC00207D
:1002F00070474FF400000023914201D3891A034351
:1003000040084FEA4101F7D151B1914202D14FF07B
:10031000004105E002D24FF0010101E06FF0010160
:1003200003EBC450284430BC00F0A7BA2DE9FE4FBF
:10033000804681EA0300C00F0C46009021F0004186
:1003400023F00045B8EB0200A94105D24046214602
:1003500090461C460B46024623F00040104347D00F
:10036000270DC7F30A00C3F30A510290401A019007
:1003700040286BDAC3F3130040F4801B00989246C8
:1003800020B10023D2EB030A63EB0B0B0198594613
:10039000C0F14002504600F0EBF906460D465046CB
:1003A0005946019A00F003FA10EB0800614100245D
:1003B00087EA115284EAE7731A4340D0009A62B385
:1003C000019A012A4FEA075215DC001B61EB02017A
:1003D0004FF0004202EA0752CDE90042001C41F50D
:1003E000801132462B4600F08EFA03B0BDE8F08F44
:1003F00040462146F9E7001B61EB0201001C41F574
:10040000801300185B412018A2F5001747EB030189
:1004100040EAD570B6196D4111E06D084FEA360615
:1004200045EAC0754FEA0752001B61EB0201001C50
:1004300041F5801149084FEA300000195141324618
:100440002B4603B0BDE8F04F00F04EBA00980122F1
:1004500040000023D0EB020263EBE07300982146DA
:100460004FEAE074B8EB000061EB0401E9E783F0C8
:1004700000435BE781F0004158E72DE9FE4F81EA38
:10048000030404F0004421F0004100944FF0000BFD
:1004900023F0004350EA01045ED052EA03045BD02B
:1004A000C3F30A54C1F30A552C44A4F2F334019463
:1004B000A0FB0254C1F3130141F48011C3F31303F1
:1004C00043F4801301FB024400FB034E840A970AA5
:1004D00044EA815447EA8357A4FB076802958D0AD2
:1004E00005FB07854FEA932C04FB0C542705029D5E
:1004F0004FEA065847EA1637B5EB08056EEB070CCE
:10050000870E920E47EA811742EA8312A7FB020187
:10051000B6EB0B0164EB00042B0D43EA0C335E18C1
:1005200044EB1C50DA465146E7FB0201C5F31304C5
:100530004FEA0B3343EA14534FEA0432019C43EA77
:100540000603A4F10C040294009CCDE900B400F071
:10055000DAF903B0BDE8F08F00200146F9E72DE994
:10056000F04D81EA030404F0004B21F000451446ED
:100570004FF0000A23F0004150EA050220D054EA6F
:1005800001021DD0C5F30A570246C5F31303C1F398
:100590001300C1F30A5640F4801543F48013A7EB0F
:1005A0000608101BD64608F2FD3873EB050002D38F
:1005B00008F1010801E092185B41B8F1000F03DA7D
:1005C00000200146BDE8F08D00204FF48011064662
:1005D00084460EE0171B73EB050705D3121B63EB74
:1005E000050306434CEA010C49084FEA3000921813
:1005F0005B4150EA0107EDD152EA030012D082EAD2
:10060000040083EA0501084305D0101BAB4106D264
:100610000122002306E000224FF0004302E06FF0C9
:10062000010253101AEB06004CEB085110EB0A00C4
:1006300041EB0B01BDE8F04D00F056B9C10F80EA67
:10064000E0700844CA079623002100F01FB99623E2
:100650000022114600F01AB90EB540F23341029162
:100660000021CDE900110A460B4600F04CF903B019
:1006700000BD00F0004230F000400AD0C10D01F58D
:100680006071C0F3160042EA0151C20840071143ED
:10069000704700200146704730B5041E71F1000418
:1006A00004DB4FF00044404264EB0101141E73F17F
:1006B000000405DB1C464FF00043524263EB040389
:1006C0008B4208BF824230BD30B5041E71F1000478
:1006D00004DB4FF00044404264EB0101141E73F14F
:1006E000000405DB1C464FF00043524263EB040359
:1006F000994208BF904230BD01F0004330B421F070
:10070000004150EA010206D00A0DA2F56072C1F361
:100710001301002A02DC30BC00207047440F44EA79
:10072000C104C100E01830BC00EBC25000F0A5B815
:10073000002801DBC0F10040002901DBC1F10041CC
:100740008842704730B50B46014600202022012424
:1007500009E021FA02F59D4205D303FA02F5491B8F
:1007600004FA02F52844151EA2F10102F1DC30BDA5
:10077000202A04DB203A00FA02F100207047914061
:10078000C2F1200320FA03F3194390407047202A56
:1007900004DB203A21FA02F00021704721FA02F32B
:1007A000D040C2F120029140084319467047202AE8
:1007B00006DBCB17203A41FA02F043EAE07306E089
:1007C00041FA02F3D040C2F1200291400843194699
:1007D0007047000000487047D43700082DE9F05FEB
:1007E00082460078002715468B460AF10104B94677
:1007F000302801D09DB113E014F8010B01277828AF
:1008000003D0582801D045B10AE00DB1102D07D111
:100810000027102514F8010B02E0082500E00A2546
:100820000026B0460EE005FB080005FB06F1012797
:1008300001EB10461FFA80F8B6F5803F00D3B946A9
:1008400014F8010B294600F0FFF80028EBDABBF1A1
:10085000000F05D00FB1641E00E05446CBF80040F5
:10086000B9F1000F06D001F0BFFB02210160C81EE4
:10087000BDE8F09F48EA0640FAE70029A8BF7047A4
:10088000401C490008BF20F00100704710B4B0FAC6
:1008900080FC00FA0CF050EA010404BF10BC704761
:1008A00049B1CCF1200421FA04F411FA0CF118BF7B
:1008B000012121430843A3EB0C01CB1D4FEA00614A
:1008C0004FEA102042BF002010BC704700EBC3501D
:1008D00010440029A4BF10BC7047401C490008BF49
:1008E00020F0010010BC704710B5141E73F1000415
:1008F00008DA401C41F1000192185B411A4301D112
:1009000020F0010010BD2DE9F04D92469B4611B13B
:10091000B1FA81F202E0B0FA80F220329046FFF79D
:1009200027FF04460F4640EA0A0041EA0B015346FE
:100930005A46084313D0114653EA010019D0C8F1B2
:1009400040025046FFF723FF05460E4650465946E3
:100950004246FFF70DFF084305D0012004E0204682
:100960003946BDE8F08D0020054346EAE0762C4389
:1009700037430A986305E40AA0EB08000022FD0A49
:1009800044EA47540A3002D500200146E9E7010550
:1009900010196941DDE9084500196941BDE8F04DCC
:1009A000A2E770B521F0004303430CD0C1F30A5510
:1009B0000024D5EB040564EB0403D617AD1AB3414C
:1009C00002DB0020014670BD201841EB025170BDD2
:1009D0000EB5C10F80EAE0700844CA07002140F25A
:1009E00033438DE80E000A460B46FFF78CFF03B039
:1009F00000BDC1F30A52C1F3130140F2FF3341F4C9
:100A000080119A4202DA00200146704740F23343D7
:100A10009A42A2F2334202DC5242FFF7B8BEFFF71D
:100A2000A7BE0000064C074D06E0E06840F0010359
:100A300094E8070098471034AC42F6D3FFF75AFB0E
:100A4000243A0008443A00083A2800D2303820F00E
:100A50002002412A01D3A2F13700884201D34FF08E
:100A6000FF3070472DE9F04D00231A461B1A8A41CA
:100A700003DB00200146BDE8F08DC1F30A52C1F34B
:100A8000130141F480154FF0000BD10702D100187B
:100A90006D41521E0027044640F2FF11384601EB1B
:100AA000620A3E468046024600204FF48011FFF75E
:100AB0006EFEC2197141BB1846EB0100B4EB030C8A
:100AC00075EB000C04D3E41A65EB000517460E46DF
:100AD000241908F101006D4180463428E3DDF9193D
:100AE00046EB0600091BA84103D24FF0FF32134624
:100AF00001E0002213461BEB070046EB0A51BDE85C
:100B0000F04DFFF7F1BE000000B585B000F0B4F97C
:100B10000121480200F0B2FB002000908DF8040093
:100B20008DF805004FF46020029000200390012012
:100B30008DF8100069460D4800F046F801210B4879
:100B400000F016F8094800F0EDF800BF074800F083
:100B500031F80028FAD1054800F0F4F800BF034846
:100B600000F011F80028FAD105B000BD00240140C2
:100B700021B1826842F00102826003E0826822F0C3
:100B8000010282607047014600208A6802F0040278
:100B90000AB1012000E0002070470146C86C80B215
:100BA00070470246002013680B400BB1012000E0A3
:100BB00000207047014600208A6802F008020AB14E
:100BC000012000E00020704730B5024600200023DD
:100BD00050680F4C20400D790C6844EA05242043EE
:100BE000506090680B4C2040D1E902542C434D7961
:100BF00044EA450420439060D06A20F470000C7CE5
:100C0000641EE4B2234340EA0350D06230BD0000CA
:100C1000FFFEF0FFFDF7F1FF70B50A2601241CE08E
:100C200000250BE0E0B200F0D5FD611E0D4A52F840
:100C300021100144601E42F820106D1C0A2DF1DBCA
:100C4000601E084951F820000A21B0FBF1F081B282
:100C5000601E054A22F81010641C052CE0DD00F02F
:100C600047FA70BD7001002084010020F0B50446F1
:100C70000D4600200021092D11DDE068A5F10A06CE
:100C800006EB4607072606FA07F18843A5F10A0690
:100C900006EB460603FA06F10843E0600CE0206923
:100CA00005EB4507072606FA07F1884305EB4506DD
:100CB00003FA06F108432061072A0FDA606B561E1B
:100CC00006EB86071F2606FA07F18843561E06EB39
:100CD000860605FA06F10843606322E00D2A0FDA62
:100CE000206BD61F06EB86071F2606FA07F18843FE
:100CF000D61F06EB860605FA06F10843206310E0CE
:100D0000E06AA2F10D0606EB86071F2606FA07F138
:100D10008843A2F10D0606EB860605FA06F10843A4
:100D2000E062F0BD816841F008018160704721B147
:100D3000826842F4A002826003E0826822F4A0028A
:100D400082607047816841F004018160704710B58E
:100D5000012000F0A3FA002000F0A0FA10BD00006E
:100D600008B5014600200090034800900098084410
:100D700000900098008808BD006C004008B5002273
:100D80000092044A0092009A02440092009A116074
:100D900008BD0000006C00407047000010B5054819
:100DA000006800F00F04034844602046FFF7F4FF9A
:100DB00010BD0000000002407047000010B505485B
:100DC0000068C0F303142001024948602046FFF781
:100DD000F3FF10BD000002407047000010B5054849
:100DE0000068C0F303242002024948602046FFF750
:100DF000F3FF10BD000002407047000010B5054829
:100E00000068C0F303342003024948602046FFF71E
:100E1000F3FF10BD000002407047000010B5054808
:100E20000068C0F303442004024948602046FFF7ED
:100E3000F3FF10BD000002407047000010B50548E8
:100E40000068C0F303542005024948602046FFF7BC
:100E5000F3FF10BD000002407047000010B50548C8
:100E60000068C0F303642006024948602046FFF78B
:100E7000F3FF10BD0000024008B50121042000F07E
:100E8000FDF93E20ADF8000000208DF80300694612
:100E9000014800F003F808BD000801402DE9F041C9
:100EA000024600250026002000230024002791F898
:100EB00003C00CF00F0591F803C00CF0100CBCF14E
:100EC000000F03D091F802C04CEA050591F800C06C
:100ED000BCF1000F31D0146800202BE04FF0010C62
:100EE0000CFA00F3B1F800C00CEA03069E4220D1D0
:100EF00083004FF00F0C0CFA03F7BC4305FA03FC18
:100F00004CEA040491F803C0BCF1280F06D14FF05D
:100F1000010C0CFA00FCC2F814C00AE091F803C0FE
:100F2000BCF1480F05D14FF0010C0CFA00FCC2F8DF
:100F300010C0401C0828D1D31460B1F800C0BCF127
:100F4000FF0F34DD546800202EE000F1080C4FF054
:100F5000010808FA0CF3B1F800C00CEA03069E423F
:100F600021D183004FF00F0C0CFA03F7BC4305FAB4
:100F700003FC4CEA040491F803C0BCF1280F05D12E
:100F800000F1080C08FA0CF8C2F8148091F803C0BC
:100F9000BCF1480F07D100F1080C4FF0010808FA26
:100FA0000CF8C2F81080401C0828CED35460BDE86D
:100FB000F0810246002093680B400BB1012000E055
:100FC000002070470AB1016100E0416170470000F4
:100FD00008B500F06FFD0121082000F04FF9102046
:100FE0008DF803000220ADF8000003208DF8020008
:100FF00069460B48FFF752FF28208DF803000120B7
:10100000ADF8000069460648FFF748FF002220219E
:101010000348FFF7D7FF0F2001F01AFD08BD0000BD
:10102000000C01400146CA1701EB92729210A1EB2D
:10103000820292B9642091FBF0F200FB121050B9C9
:101040004FF4C87091FBF0F200FB121008B90120B8
:1010500070470020FCE70120FAE70020F8E70000D5
:1010600070B5002100230F22C47804B3154C246806
:1010700004F4E064C4F5E064210AC1F10403CA4049
:10108000447804FA03F184781440214309010E4C9A
:101090000678A155047804F01F050124AC400578BA
:1010A0006D11AD0005F1E025C5F8004109E00478B7
:1010B00004F01F050124AC40044D0678761145F874
:1010C000264070BD0CED00E000E400E080E100E0AF
:1010D00002490143024A1160704700000000FA050E
:1010E0000CED00E0014908627047000000000E426C
:1010F0002DE9F04F87B04FF47A7006904A4805907A
:101100004FF4FA700490494803904FF4FA6002904B
:1011100047480088B0F57A7F03DA0120454988778F
:1011200002E000204349887741484088B0F5FA7FC3
:1011300003DA00203F49C86213E03D494988A1F124
:101140002400FFF77BFA04463749FFF77FF8394957
:10115000C862C86A3849FFF7EBFA02D23648354907
:10116000C862DFF8D8B032498888FFF775FA804640
:1011700000224FF0804301F0CDFC06464FF02042A4
:101180002F4BFFF77AF90446FFF7B6FA2949486072
:1011900027490889FFF75BFA04462449FFF756F808
:1011A00082465046FFF765FA0446264A264BFFF76B
:1011B0008BFA03D820481F49886224E05046FFF785
:1011C00058FA0446214A224BFFF766FA03D800205A
:1011D0001849886217E05046FFF74BFA80461B4AD1
:1011E0001B4BFFF744F900221A4BCDE90001FFF732
:1011F000B6F906460022184BFFF73FF90446FFF701
:101200007BFA0C4988620A48C088B0F5FA6F04DDA1
:101210000120084981F8250003E00020054981F8F4
:10122000250007B0BDE8F08F48ADA93C3333D33A71
:1012300084010020180000200000C842BD37863518
:10124000F7C6B03ECDCCCCCCCCCC10409A99999975
:1012500099990D400000E03F0000594029B1064A2D
:10126000D2690243044BDA6104E0034AD269824343
:10127000014BDA61704700000010024029B1064AB4
:1012800092690243044B9A6104E0034A92698243E3
:10129000014B9A617047000000100240014908604C
:1012A000704700004004424210B50146002200236E
:1012B00000204A11012A02D1094C236806E0022AC3
:1012C00002D1074C236A01E0054C636A01F01F025A
:1012D000012494401C400CB1012000E0002010BD0E
:1012E0000010024000210B4A11700A4A203A82F88D
:1012F0002010012802D0042808D103E00121054A6A
:10130000117004E00521034A117000E000BF00BF26
:10131000704700002010024001490860704700003B
:101320003C0442420249096A0143014A1162704782
:1013300000100240024909888143014A1180704728
:10134000042800400348008840F01000014908804C
:101350007047000004280040034800884FF6EF71F2
:1013600008400149088070470428004070B50026F5
:101370000024002500F07AF806463848B6FBF0F461
:1013800037480088A0423CD035490C8040F2B27505
:1013900010E02846FFF746FE40B1B4F5B77F02D310
:1013A000A4F5B77404E0681C85B206E0A4F26D14DD
:1013B000681C85B2B4F5B67FEBD800BF294885809C
:1013C000002516E027498888FFF72CFE30B1012D53
:1013D00004D11D2C01D31D3C09E00CE02248405DE6
:1013E000A04203D82048405D241A00E003E0681CB6
:1013F00085B21C2CE6D200BF681C1A498871601C9B
:10140000C8711648B6FBF0F100FB11644FF461603F
:10141000B4FBF0F0134908704FF46160B4FBF0F1D5
:1014200000FB11403C21B0FBF1F00E4948704FF435
:101430006160B4FBF0F100FB11403C21B0FBF1F224
:1014400001FB1200074988700B46DA799979988870
:1014500000F034F803490872002070BD805101008B
:101460007C00002098010020B036000800210022F6
:10147000002308480188001D0388001F028891424C
:1014800004D0001D008840EA0240704743EA014052
:10149000FBE700001828004001460020064A128899
:1014A0000A40D0B2044A121F12880A4012B108B191
:1014B000012000E00020704704280040F0B50346FA
:1014C0000C461546642093FBF0F0C6B2642093FBF3
:1014D000F0F700FB1730C1B2132E02DD01F16400FA
:1014E000C1B20846CF1701EB977701EBA707BAB255
:1014F000072092FBF0F700FB172082B25719601EFD
:10150000DFF82CC01CF80000384482B2CF1701EB82
:101510009777BF10A1EB87071FB9032C01DA501E84
:1015200082B2072092FBF0F700FB1720C0B2F0BD9B
:10153000A436000810B50120FFF7AEFF08B1FFF791
:1015400015FF0220FFF7A8FF20B10220FFF7F2FEEF
:10155000FFF70CFF0520FFF7EDFE00F01FF910BDAF
:1015600029B1064A12880243044B1A8004E0034A58
:1015700012888243014B1A80704700000028004007
:101580001CB5002401214FF0C050FFF767FE012079
:10159000FFF7A8FD0420FFF7E3FB45F25001884266
:1015A00040D0FFF7D4FB0120FFF79CFE04E0601C55
:1015B000C4B20A2001F01AFA4120FFF775FE08B9FB
:1015C000FA2CF4DBFA2C01DB01201CBD4FF48070F7
:1015D000FFF7A8FE0120FFF79FFE00F0DFF800F004
:1015E000E7F801210846FFF7BBFF00F0D7F8FFF747
:1015F000A9FE47F6FF7000F0B1F800F0CFF83720F1
:101600002A2111230E22CDE90010012140F2DF70C2
:1016100000F032F8FFF7A0FE45F250010420FFF77A
:10162000ADFB07E000F0C4F801210846FFF798FF82
:1016300000F0B4F800F004F8FFF798FE0020C4E7CB
:1016400008B54FF4C060FFF743FD03208DF800009C
:1016500000208DF801008DF8020001208DF80300B4
:101660006846FFF7FDFC0348008840F0030001498D
:10167000088008BD002800402DE9F05F06460F46AF
:1016800090469946DDE90AAB002440F2B2708642EA
:1016900003DB40F63300864202DD0120BDE8F09F07
:1016A00040F2B2750AE02846FFF7BCFC10B12048B2
:1016B000044401E01F480444681C85B2B542F2DBD3
:1016C000781EC7B2002510E01B48405D40F2A32100
:1016D000484304EBC0143046FFF7A4FC18B1012DB9
:1016E00001D116480444681C85B2BD42ECDBA8F168
:1016F000010040F2A321484304EBC014C9EB491098
:10170000C0EB092004EB0014CAEB0A1004EB8004C0
:101710005C4401214FF0C050FFF7A0FD0120FFF70E
:10172000E1FC204600F00CF800F038F80020B5E7A6
:101730000085E2018033E101B036000880510100EC
:1017400000B50246FFF7FEFD100C03490880091D95
:101750000A80FFF701FE00BD1828004000B50246D0
:10176000FFF7F0FDC2F3034003490880091D0A801A
:10177000FFF7F2FD00BD00000828004010B5044648
:1017800001214FF0C050FFF769FD0120FFF7AAFCCF
:101790002046FFF7D5FF00F001F810BD00BF034859
:1017A000008800F020000028F9D07047042800408D
:1017B000074800884FF6F77108400549088000BFC8
:1017C0000348008800F008000028F9D070470000A6
:1017D0000428004010B5044605230122214609488B
:1017E000FFF744FA01210748FFF7A1FA00BF0221E1
:1017F0000448FFF7D6F90028F9D00248FFF7CDF9E1
:1018000010BD00000024014010B500F001F810BD2B
:101810000CB50020019000903348006840F48030FF
:101820003149086000BF3048006800F40030009083
:101830000198401C0190009818B90198B0F5A06F6C
:10184000F1D12948006800F4003010B10120009067
:1018500001E0002000900098012843D1234800684F
:1018600040F01000214908600846006820F0070099
:1018700008600846006840F0020008601A484068A6
:10188000194948600846406848600846406840F486
:10189000806048600846406820F47C104860084634
:1018A000406840F4E81048600846006840F08070E6
:1018B000086000BF0C48006800F000700028F9D0F4
:1018C0000948406820F0030007494860084640681E
:1018D00040F00200486000BF0348406800F00C0080
:1018E0000828F9D10CBD0000001002400020024081
:1018F000042808D14FF0E021096941F004014FF0BC
:10190000E022116107E04FF0E021096921F00401B4
:101910004FF0E0221161704710B51348006840F0A5
:1019200001001149086008464068104908400E4906
:101930004860084600680E4908400B4908600846A0
:10194000006820F4802008600846406820F4FE000B
:1019500048604FF41F008860FFF756FF4FF00060AB
:101960000449086010BD0000001002400000FFF8AC
:10197000FFFFF6FE08ED00E010B50121094800F078
:1019800027F801280CD10848D0E90020521C40F16A
:1019900000000549C1E900200121024800F009F8D2
:1019A00010BD00000004004080000020CA430282F5
:1019B0007047CA430282704721B1028842F0010297
:1019C000028004E002884FF6FE731A4002807047DE
:1019D00030B50246002000230024158A05EA0103E1
:1019E000958905EA010413B10CB1012000E0002043
:1019F00030BD1AB183890B43838102E083898B4315
:101A00008381704701894FF6F87211400181704758
:101A1000002202881D4B98420ED01D4B98420BD0DD
:101A2000B0F1804F08D01B4B984205D01A4B98421A
:101A300002D01A4B984204D14FF68F731A404B884C
:101A40001A43174B984207D0164B984204D04FF6D2
:101A5000FF431A40CB881A4302808B8883850B880A
:101A600003850A4B98420BD0094B984208D00E4B85
:101A7000984205D00D4B984202D00D4B984201D1AF
:101A80000B7A03860123838270470000002C0140FB
:101A9000003401400004004000080040000C0040F9
:101AA000001000400014004000400140004401408C
:101AB000004801401FB501210220FFF7CFFB1A4863
:101AC000FFF7A0FF0020ADF80A00ADF806000920DE
:101AD000ADF808004720ADF8040000208DF80C0098
:101AE00001A91148FFF794FF01210F48FFF75EFF9E
:101AF000012211460C48FFF77CFF4FF4A060FFF76E
:101B0000E7FA1D208DF8000001208DF80300022067
:101B10008DF801008DF802006846FFF7A1FA012157
:101B20000148FFF749FF1FBD0004004010B540F217
:101B30002551134800F02AF808B3114800F050F876
:101B4000C4B21048008800F40040C0B934B90D4850
:101B5000008840F400400B49088010E009480088E4
:101B6000C0F30D0008490C5406480088401C054984
:101B7000088008460088C72801DD0020088010BDC5
:101B80000038014008000020A800002070B502467F
:101B9000002400230025002040F66A16B14200D13F
:101BA00000BFC1F3421501F01F03012606FA03F33B
:101BB000012D02D19689334006E0022D02D1168A0A
:101BC000334001E0968A33400C12012606FA04F4F1
:101BD0001688344013B10CB1012000E0002070BD24
:101BE00001468888C0F308007047000010B5074818
:101BF000007850B10648006801F078FC022000F03F
:101C0000DFF804480068FFF7B9FD10BD10000020A0
:101C10004C0000207800002010B52548006801F035
:101C200065FC002000F0CCF800B110BD2148006830
:101C300001F05CFC002000F0C3F800B1F5E71E489D
:101C4000006801F053FC002000F0BAF800B1ECE7A6
:101C50001A48006801F04AFC142000F0EDFE002054
:101C600000F0AEF800B1E0E71548006801F03EFC76
:101C7000052000F0E1FE002000F0A2F800B1D4E75A
:101C80001048006801F032FC002000F099F800B123
:101C9000CBE701200C4908700C48006801F026FCD5
:101CA0000A2000F0A3FE00200949088000BFBCE71D
:101CB000680000206C000020580000205400002024
:101CC0005C00002060000020100000206400002064
:101CD000080000202DE9F04FD7B0324800780028E6
:101CE0005DD0FFF7C3FB30498861C86AFEF7C1FCCD
:101CF00004460D462C49886AFEF7BBFC06460F4693
:101D00002949086AFEF7B5FC804689462649486895
:101D1000FEF7AFFC82468B462348CDE90E67CDE93E
:101D2000104590F82500204991F82410CDE90A8942
:101D3000CDE90C101C48807F1B49898B1A4A926997
:101D4000CDE9062108901849D1E90401CDE9040143
:101D50001548C1688068154ACDE900ABCDE902019C
:101D6000FA2118A800F012F918A8FEF720FA044684
:101D700023460FA2142113A800F008F90E480068AA
:101D800001F0B4FB13A801F0B1FB0CA001F0AEFB15
:101D900018A801F0ABFB012000F012F800BF57B00B
:101DA000BDE8F08F10000020180000206C390008FA
:101DB00025640D0A00000000480000200D0A000004
:101DC0002DE9F0470546282000F010FE484800881D
:101DD000C0F30D04002C02DCFF20BDE8F0870026D4
:101DE00035B1012D05D0022D1ED0032D76D130E066
:101DF00000BF0DB93FA000E040A007463846FEF7FF
:101E0000D6F981463846FEF7D2F9201A3D4900EB53
:101E100001084A4639464046FEF7D0F908B9012084
:101E200000E0002006465BE00FF2DC084146354842
:101E3000FEF7ABF907465FB14046FEF7B8F9074435
:101E40000A2200213846FEF7C8F932490860012607
:101E500046E031A70FF2C8083846FEF7A8F98246D7
:101E60003846FEF7A4F9201A264900EB010952462C
:101E700039464846FEF7A2F980B14046FEF797F989
:101E800082464046FEF793F9201A1E4900EB0109ED
:101E9000524641464846FEF791F908B9012000E054
:101EA00000200646C6B1A11F164A881805221AA1AD
:101EB000FEF784F920B901201B4981F824000BE0CA
:101EC000A11F104A8818052215A1FEF777F918B945
:101ED0000020154981F8240002E0FFE7FF207CE79D
:101EE00000BF1EB100200249088076E7FF2074E79A
:101EF000080000204F4B0D0A000000004F6B0D0A38
:101F000000000000A80000207B2774696D65273A57
:101F100020000000780000204F4F4B0D0A00000009
:101F2000464F4B0D0A0000001800002010B50B486A
:101F3000007890B1142000F059FD09A001F0D6FA04
:101F40000A2000F079FD0748006801F0CFFA01206F
:101F500000F072FD00200449088010BD1000002030
:101F60002B2B2B0064000020080000200FB4054B31
:101F700010B503A9044A029800F088F910BC5DF876
:101F800014FB00009D2A0008040000200FB47CB55B
:101F90000C0009AD01D0611E00E00021CDE9000177
:101FA000064B6A462946089800F070F9002C02D0CA
:101FB000009A002111707CBC5DF814FB9329000885
:101FC000490050EAC12018BF04204A0D18BF40F054
:101FD000010040F2FF72B2EB515F08BF40F0020017
:101FE000012808BF0520704700487047A400002062
:101FF0002DE9F0414F1E00EBC7010446D1E9000175
:1020000015461E4637F006020DD02A463346FEF727
:1020100034FA7F1E04EBC703D3E90023FEF786F9E9
:1020200037F00602F1D1022F25D0042F13D0062F4E
:1020300018BFBDE8F0812A463346FEF71EFAD4E900
:102040000A23FEF773F92A463346FEF716FAD4E957
:102050000823FEF76BF92A463346FEF70EFAD4E959
:102060000623FEF763F92A463346FEF706FAD4E95B
:102070000423FEF75BF92A463346FEF7FEF9D4E95E
:102080000223FEF753F92A463346FEF7F6F9D4E960
:102090000023BDE8F041FEF749B9000000221346D5
:1020A00010460149FEF75BBA0000F03FFEF73EB96B
:1020B0000022134610461146FEF751BA40F2013293
:1020C00000204FF0E041FEF76CBC0000024A002007
:1020D0001107FEF766BC000001FDFFFF02E008C823
:1020E000121F08C1002AFAD170477047002001E092
:1020F00001C1121F002AFBD170470000014908608E
:1021000070470000A40000202DE9FF5F82B000218D
:10211000DDE90430020DDDF840B0034318D044F689
:102120001050A2F2FF3242431514119801281FD01B
:10213000A5EB0B00401C5FEA000A4FF000064E4F73
:10214000DFF83891B046504615D5CAF1000413E0C7
:10215000119801244AA3012801D16FEA0B010298CA
:10216000119AC0E90031C0E9024206B0BDE8F09F13
:10217000CBF10000DFE704460021404A491842EB5A
:102180000450CDE9001012E0E00707D032463B468C
:1021900040464946FEF771F98046894632463B463D
:1021A00010461946FEF769F906460F466410002CE2
:1021B000EAD1DDE90401DDE90023BAF1000F06DA16
:1021C000FEF75BF942464B46FEF757F905E0FEF78E
:1021D000C6F942464B46FEF7C2F904460E460022B7
:1021E000284BFEF771FA03D84FF0FF30014607E0A5
:1021F0000022254B20463146FEF798F8FEF7F9FB02
:10220000102409E0002C0ADB0A220023FDF78CFFD2
:10221000039B30321A55641E50EA0102F2D1641C4D
:10222000039AC4F111031444119A012A03D0012224
:1022300008430DD10AE0084304D000204FF0110BF1
:10224000119072E7A3EB0B056D1E0DE05B4504DDFD
:102250004FF0000205F1010504E003DA4FF000023F
:10226000A5F10105002AECD002981199C0E90231CC
:10227000C0E9004579E70000000014400000F03F8D
:10228000300000000000F0430000E03F2DE9FF4F68
:1022900095B09A46884606460025EEE1252877D176
:1022A00000242746F94A0121039400E0044316F86C
:1022B000013F203B01FA03F01042F7D130782A2881
:1022C00011D06FF02F033078A0F13002092A16D810
:1022D000039A44F0020402EB820203EB4202104430
:1022E000761C0390EFE758F8042B0392002A03DAD8
:1022F000504244F40054039044F00204761C3078B9
:102300002E2816D116F8010F44F004042A280DD007
:102310006FF02F023078A0F13003092B09D807EBBA
:10232000870302EB4303C718761CF3E758F8047BD6
:10233000761C30786C280FD006DC4C2817D0682823
:102340000DD06A2814D104E0742810D07A280FD157
:102350000DE044F400140AE044F4801401E044F475
:1023600040147278824202D104F58014761C761CE7
:10237000307866280BD013DC582877D009DC002889
:1023800075D04528F6D04628F4D047281AD193E1D5
:1023900018E0632835D0642879D0652812D18BE104
:1023A000702873D008DC6728F1D069286FD06E28B8
:1023B0000DD06F2806D1ACE073282CD0752874D0CE
:1023C000782853D05246179990476D1C54E1C4F3B6
:1023D0000250022809D003280DD0D8F80010042894
:1023E0000DD00D6008F1040846E1D8F80010EA1796
:1023F000C1E90052F6E7D8F800100D80F2E70D7041
:10240000F0E718F8041B8DF8001000208DF801008B
:10241000EB46012003E058F804BB4FF0FF306107A2
:102420004FF0000102D40DE009F101018946B942E3
:102430000FDA8145F8DB1BF809100029F4D108E018
:1024400009F1010189468142FADB1BF809100029D4
:10245000F6D103985346A0EB090721463846179A50
:1024600000F080FA284400EB090507E044E008E1A9
:102470000DE01BF8010B524617999047B9F101097D
:10248000F7D2534621463846179AF2E039E00A213E
:10249000C4F302524FF0000B0091022A06D058F804
:1024A000040BC117032A09D00AE023E008F1070052
:1024B00020F00702F2E80201904605E000B2C117E1
:1024C000042A01D140B2C117002906DA0A460021C8
:1024D000404261EB02012D2202E0220504D52B22AD
:1024E0008DF80420012203E0E20701D02022F7E763
:1024F000914657E00A2100E010214FF0000B0091B7
:102500000BE010214FF0000B44F004040827009169
:1025100003E008204FF0000B0090C4F30252022A9F
:1025200005D058F8040B0021032A08D008E008F170
:10253000070020F00702F2E80201904603E080B2B3
:10254000042A00D1C0B24FF0000922072AD5327800
:10255000702A07D0DDF800C08CF0100C5CEA0B0C80
:1025600005D00EE040228DF80420012208E050EA58
:10257000010306D030238DF804308DF805200222A7
:102580009146009B83F0080353EA0B030AD150EAFB
:10259000010201D1620705D530228DF804204FF0E9
:1025A00001097F1E3278582A04D039A20C920CAA55
:1025B00002920BE03BA2F9E75B46009AFDF7B4FDFF
:1025C0000C9B9B5C029A521E0292137050EA01020D
:1025D000F2D1029804A9081A00F1200B600702D575
:1025E00024F4803400E001275F4502DDA7EB0B00F7
:1025F00000E0002000EB0B01009003984944401AD2
:102600000390E00306D453462146179A039800F03E
:10261000A9F90544002706E001A85246C05D1799B4
:1026200090476D1C7F1C4F45F6DBE0030CD55346ED
:102630002146179A039800F095F9054404E03020EC
:102640005246179990476D1C0099481E009000292A
:10265000F5DC08E00298029952460078491C029184
:10266000179990476D1CBBF10001ABF1010BF1DC38
:102670005BE100F065F90544761C307800287FF4B2
:102680000DAE19B02846BDE8F08F00000928010002
:1026900030313233343536373839616263646566D8
:1026A000000000003031323334353637383941429A
:1026B0004344454600000000600700D4062708F1A7
:1026C000070020F00700F0E80223804603F0004CEA
:1026D0005FEA0C0001D097A009E0200501D596A083
:1026E00005E0E00701D095A001E0AFF24C001390A7
:1026F000307823F0004365280CD006DC452809D04B
:1027000046281DD047287FD13BE0662818D067288F
:102710007AD136E00021112F01DB112000E0781C76
:10272000CDE9000104A90CA8FFF7EEFCDDE90D01DD
:102730000C9A4FF0000B07F10109109200914EE046
:102740004FF000400097CDE9011004A90CA8FFF755
:10275000DBFCDDE90D020C9B0F994FF0000B91465D
:102760001093009211B9791C00EB0109B7EB090035
:1027700003D4C0F1FF3B07F10109A9EB0700019069
:1027800042E0012F00DA01270021112F01DD112085
:1027900000E03846CDE9000104A90CA8FFF7B4FC1D
:1027A000DDE90D010C9A00914FF0000BB946109233
:1027B00021070FD4009A4A4503DA914601E0A9F1B6
:1027C0000109B9F1010F05DD109AA9F10101515C70
:1027D0003029F4D0B84202DA10F1040F03DA0121F3
:1027E000CDE9011010E0002803DC8344A9EB0001CF
:1027F00002E0411C494500DD8946A0EB0B00401C6E
:1028000001904FF000400290200705D40198484500
:1028100002DB4FF0FF30019000208DF84B00029852
:102820000DF14B07B0F1004F25D002200C902B206A
:102830000D90029800280CDA404202902D200D9055
:1028400007E00A210298FDF77DFF3031029007F87A
:10285000011D0C99481E0C900029F2DC02980028FA
:10286000EFD1791E0D980870307800F0200040F00C
:10287000450007F8020D11A8C01BC01D0290139857
:10288000007800B1012000EB0901019801EBE07133
:10289000029801440398401A401E0390E00306D4B6
:1028A00053462146179A039800F05CF805441398A4
:1028B000007818B15246179990476D1CE00323D554
:1028C00053462146179A039800F04CF805441BE044
:1028D000BBF1000F07DB0098584504DD10981799ED
:1028E00010F80B0001E017993020524690470198EC
:1028F0000BF1010B401E05F10105019004D12E20C2
:102900005246179990476D1CB9F10001A9F10109D0
:10291000DEDC05E017F8010B5246179990476D1C55
:102920000299481E02900029F4DC53462146179A6A
:1029300003989EE62D0000002B0000002000000000
:102940002DE9F041044600251E461746880404D4AC
:1029500005E039462020B0476D1C641EF9D5284695
:10296000BDE8F0812DE9F041044600251E46904661
:10297000C80301D5302700E02027880404D505E0EE
:1029800041463846B0476D1C641EF9D52846BDE85F
:10299000F0814A68002A06D00A68531C0B60107048
:1029A0004868401E4860704710B56FF00400FEF79D
:1029B0009FFF0A4800680A49B0FBF1F00949087016
:1029C0000846007800EB4001C1EBC0104FF6FF71E4
:1029D00001EAC0000449088010BD000090000020FA
:1029E00000127A0000000020020000200146114A77
:1029F00012884A434FF0E0235A6100229A611A4636
:102A0000126942F001021A6100BF4FF0E022106922
:102A100000F001021AB100F48032002AF5D04FF024
:102A2000E022126922F001024FF0E0231A61002235
:102A30009A6170470200002030B50446002504E08A
:102A40004FF47A70FFF7D2FF6D1CA542F8DB30BD62
:102A50000146114A12784A434FF0E0235A6100229E
:102A60009A611A46126942F001021A6100BF4FF0E2
:102A7000E022106900F001021AB100F48032002A4D
:102A8000F5D04FF0E022126922F001024FF0E0236E
:102A90001A6100229A6170470000002000BF054AB9
:102AA000128802F04002002AF9D0C2B2014B1B1D6D
:102AB0001A80704700380140FFF776FF4FF4E1308D
:102AC00000F0A2FDFEF75CFD4FF47A70FFF78EFF79
:102AD00000200F490880FEF77BFAFEF715F8FFF794
:102AE0009BF8FFF783F8FFF781F800240FE000F070
:102AF00007FDFEF791F8FFF7EDF80120FFF79CFFC7
:102B00000A2C03DB0024FFF711FA00E0641CEEE757
:102B1000080000202DE9F04D1D460C4698B01746E0
:102B200021F0004123F00043002814BF4FF0010CB6
:102B30004FF0000C0CEB440CFE4A0CEB02064FEA83
:102B4000620C66452BD33E0018BF012606EB4506F6
:102B50001644F94A964222D3F84A53EA070C02D0A7
:102B6000944205D148B918B000201146BDE8F08D57
:102B7000002808BF4FF0000C01D04FF0010C0CEB07
:102B8000440212F5001F0AD8002F14BF4FF0010CA9
:102B90004FF0000C0CEB450212F5001F07D918B0DE
:102BA0003A462B462146BDE8F04DFFF77FBA00229A
:102BB000DFF88CA3002CB8BF534526DADFF884C3B6
:102BC0006345A8BF022220DADFF870C39C451CDCF5
:102BD000DFF874C30CEB235CBCF1140F08DDCCF1FF
:102BE000340627FA06FC0CFA06F6BE420DD108E0C0
:102BF0005FB9CCF1140623FA06FC0CFA06F69E42E5
:102C000003D10CF00102C2F1020251EA000C19D109
:102C1000002D17DA002C18BF022A01D0012A07D094
:102C20000220FFF76BFA18B0BDE8F04DFFF736BA97
:102C30000220FFF763FAFFF731FA18B081F0004184
:102C4000BDE8F08DB7F1000C6CD1534525D104F1EE
:102C5000804212F5801201BF00280020B74918B049
:102C600008BFBDE8F08DB548884207DC002DA1BF44
:102C70006046294618B0BDE8F08D07E0281E05DA49
:102C800080F0004118B06046BDE8F08DAF4979444E
:102C9000D1E9000118B0BDE8F08DDFF8A0C26345AE
:102CA00025D1002D1FDA19B1514512D1D8B909E04B
:102CB000002840F0EC82A24A214618B062F31E01BF
:102CC000BDE8F08D0020214618B060F31E01BDE87C
:102CD000F08D08DA18B02346BDE8F04D024600201A
:102CE0006146FDF73CBC18B02146BDE8F08D51456A
:102CF00018DAB5F1804F0DD0A5F1005CBCF1FF5C96
:102D000010D1B4F1000C0DDB18B06146BDE8F04DF8
:102D100000F054BC234618B00246BDE8F04D1946F9
:102D2000FDF7ABBB060024F0004C3BD1D9B15145B7
:102D300033D1002C06DD002DA1BF0020514618B074
:102D4000BDE8F08D002C01DD002D1BDB002C13DA1B
:102D5000002D11DB012A4FF0000014BF78497C4997
:102D600018B0BDE8F08D022A18BF002C0AD0012A45
:102D700008D1002C06DA0AE0002CB8BF002D11DAC9
:102D8000012A04D0002018B00146BDE8F08D18B02B
:102D900000204FF00041BDE8F08DA1F14050B0F1AE
:102DA0007F601AD0012000EBE47050EA020421D0C9
:102DB000624C521E4FF0000B104304BF4FF0000B4B
:102DC000644C654883427CDD644A654893421FDD5C
:102DD000884217DB002D25DB37E0002C00DA4AB1F2
:102DE000022A0CBF01204FF0FF3018B0BDE8F04DB3
:102DF000FDF7EEBD0120FFF781F918B0BDE8F04DF9
:102E0000FFF756B94D4A8A4202DC002D0ADC1CE06D
:102E1000814202DA002D18DA04E0484B994220DDA5
:102E2000002D12DD0220FFF769F9FFF747F905468B
:102E30000E460022534658462146FDF71EFB18B0A9
:102E400066F31E012846BDE8F08D0220FFF756F913
:102E5000FFF73CF90A46214618B062F31E01BDE8AF
:102E6000F08D002230466146FDF701FB80460E469C
:102E70006FF00102FDF795FD4FF05532394BFDF72C
:102E8000F9FA42463346FDF7F8FA0022364BFDF7D1
:102E9000F1FA824642463346049110461946FDF740
:102EA000ECFA5246049BFDF7E8FA8A4600904FF090
:102EB000C0422E4B40463146FDF7DFFA2C4A2B4BE1
:102EC00000E027E0CDE9060151460098FDF7D5FA6C
:102ED00082460191274A284B40463146FDF7CDFAFC
:102EE0005246019BFDF7C3FA82460B460246059106
:102EF000DDE90601FDF71AFADDE90623002688461A
:102F00003046FDF7B4FA5246059BFDF7B3FA024688
:102F100000F07EB90020B1F5801F07DA3522304677
:102F20006146FDF73EFD06466FF0340000EB215090
:102F300024E00000FFFF1F00FFFF0F000000F03F34
:102F40000000F07F0000404301FCFFFFB60A0000D4
:102F50000000F0FF0000F0BF0000E0410000F0437F
:102F6000FFFFEF3F5555D53F0000E03F4715F73FC6
:102F7000FE822B6544DF5DF80BAE543EA0F2FF30BD
:102F80000190C1F3130040F07F6141F04051029184
:102F9000FE498842D8BF002004DDFD498142C8BFF8
:102FA000012001DD0D9008E000200D900198401CEB
:102FB00001900298A0F5801002900299F54878449B
:102FC0000B910D9900EBC100D0E900230F9330461F
:102FD0000A920B99FDF74BFACDE90601DDE90A21CA
:102FE00030460F9BFDF7A2F902460B460020EA4946
:102FF000FDF7B5FA059102460B460090DDE90601A2
:10300000FDF73BFA1490E5488A464FF000087844F3
:103010000299006812904FF0005040EA61010D984B
:103020000F9B01EB804000F5002109910A9A12984C
:10303000FDF71DFA32460B9BFDF71CFA424653463C
:10304000FDF71BFA0646029140465146099B129A2B
:10305000FDF713FADDE90623FDF70CFA3246029B71
:10306000FDF705FA059B009AFDF707FA0091149AFF
:103070000490534610461946FDF7FFF906460246EE
:10308000C7480B46029106217844FEF7B1FFCDE90F
:103090000510029B324610461946FDF7EEF9DDE9B0
:1030A0000532FDF7EAF905910646534640461946B2
:1030B000149AFDF73BF9009B049AFDF7DEF93246BE
:1030C000059BFDF733F9CDE90510424653461046FE
:1030D0001946FDF7D2F90022B24B02910A90FDF792
:1030E00025F9DDE90532FDF721F90E464246AD4BE3
:1030F0004046FDF7BCF9029B0A9AFDF7B8F9DDE9F5
:103100000532FDF7B7F9424602910A903346104660
:103110005146FDF7B2F9CDE906015346149A0299DA
:103120000A98FDF7AAF98A4602903346424600996A
:103130000498FDF7A2F95346029AFDF7F7F8824684
:103140000B4602460591DDE90601FDF7EFF8DDE9E2
:103150000623002088460646FDF789F95246059B5E
:10316000FDF788F9824609914FF060428E4B304658
:103170004146FDF782F9049006918C4A8A4B5046ED
:103180000999FDF77AF982460291894A894B3046BE
:103190004146FDF772F95246029BFDF7C7F8864B90
:1031A0007B440D9A03EBC203D3E90023FDF7BEF87D
:1031B0000E9007910198FDF70BFC0591DDE90613D0
:1031C00082460E9A0498FDF7B1F87C4A7A440D9B2A
:1031D00002EBC303D3E9002300930292FDF7A6F8A4
:1031E0005246059BFDF7A2F8002688465246304617
:1031F000059BFDF73CF9009B029AFDF738F9069B09
:10320000049AFDF734F9079B0E9AFDF733F902464D
:1032100000200B46029038462946FDF72EF98246DB
:1032200001912B4638461946029AFDF720F932469D
:103230004346FDF722F95246019BFDF777F8074612
:103240008A463246434629460298FDF716F9054656
:103250000E463A465346FDF769F8594A8846914268
:1032600021DBA8EB020353EA000210D12A463346C1
:10327000FDF7FDF8CDE90401524A534B384651465B
:10328000FDF754F8DDE90423FDF71EFA21D20220F0
:10329000FEF734FFFEF712FF0A46214618B062F32C
:1032A0001E01BDE8F08D494B28F000429A4210D330
:1032B000474A08EB020353EA00027FF4C6AD2A46F0
:1032C0003346FDF7D4F83A465346FDF7FDF97FF64D
:1032D000BCAD0022019228F000403E493E4A01EB7D
:1032E0002051824223DA481C4FF4801121FA00F069
:1032F00040443A4AC0F30A517A44394BA1F2FF31B3
:10330000CB4020EA0303C0F3130040F48010C1F166
:103310001401C84012680190B8F1000FBCBF4042D0
:10332000019028463146FDF7A2F805460E462A468A
:10333000334638465146FCF7F9FF4FF00008424645
:10334000284B40460591FDF798F8CDE90601264A3D
:10335000264B40460599FDF790F8009102902A46C9
:10336000334640460599FDF782F83A465346FDF745
:1033700081F81F4A1F4BFDF780F8009B029AFCF76B
:10338000D5FF0746884602460B4635E08E98030077
:103390007AB60B00FE0600000000F03F3607000082
:1033A000640600000000084009C7EE3FFD033ADC58
:1033B000F5015B14E02F3EBE3C0500000005000057
:1033C00000009040FE822B654715973C00CC904052
:1033D00000346F3F01FCFFFF0000E03F4C040000A1
:1033E000FFFF0F00432EE63F396CA80C615C20BE46
:1033F000EF39FAFE422EE63FDDE90601FCF796FFC3
:10340000DDE9062305460E46FDF731F83A46434608
:10341000FDF730F80F462A4633460090104619460D
:10342000FDF72BF8824602462E4888460B460521BA
:103430007844FEF7DDFD52464346FDF71EF82A4666
:103440003346FDF717F880468A463B462846314604
:10345000009AFDF712F83B46009AFCF767FF0691C9
:10346000009000224FF0804340465146FCF7FFFF9A
:103470000F460C904246534628463146FCF7FDFF66
:103480003B460C9AFDF76BF8069B009AFCF7EFFFA2
:103490002A463346FCF7EBFF0022134BFCF7EAFF0A
:1034A000054601980E4601EB00510815002810DC76
:1034B00028463146019AFDF774FAFEF781FD04288B
:1034C00008BFFEF703FE28463146019AFDF769FA68
:1034D00005460B4618B02A4658462146BDE8F04D31
:1034E000FCF7CBBFEC0200000000F03F10B5044633
:1034F000214602A0FEF73AFD10BD00002573000032
:103500002DE9F0410025012202212748FDF75AFD4F
:103510000F20FFF79DFA002202212348FDF752FDFC
:1035200000BF01212048FDF744FD0028F9D000210B
:103530001E4A1160516000BF01211B48FDF739FD93
:103540000128F9D01948D0E90010194AC2E9001041
:1035500064220023164903C9FCF7E6FD263871F101
:10356000000114D212494FF4AD734FF0000C05C99D
:10357000A0FB036802FB038200FB0C2102226346CE
:103580003046FCF7D1FD04466420B4FBF0F5284634
:10359000FDF75DF806460749FCF78AFE0649086212
:1035A00028B2BDE8F0810000000C0140800000203E
:1035B0008800002000002041180000202DE9F04183
:1035C00006460F46FDF74EFA041E0D4618BF0120B1
:1035D000284320F00040C0F17F6000F1E040C00FC0
:1035E0000ED0301C18BF0120384320F00040C0F13D
:1035F0007F6000F1E040C00F04BF0120FEF77EFDB8
:1036000020462946BDE8F08138B50446012144F240
:103610000400FDF733FE1F48806940F004001D4997
:1036200088610846806940F4804088611A480068D3
:1036300020F47F60184908600846006840F40B6079
:1036400008601448C06840F480401249C8600846C9
:10365000C06820F48040C86040F271200F490880A3
:10366000081D008842F22C0108430C49091D0880FE
:1036700025208DF8000003208DF801008DF8020050
:1036800001208DF803006846FDF7EAFC04A0FEF770
:103690006DFC38BD001002400408014008380140AC
:1036A0002B2B2B0000030306010406020500030573
:1036B0001F1C1F1E1F1E1F1F1E1F1E1F000000009D
:1036C000000000000000F03F000000000000F83F94
:1036D00000000000000000000000004003B8E23FCE
:1036E000000000000000000006D0CF43EBFD4C3E80
:1036F000033333333333E33FFFAB6FDBB66DDB3F75
:103700004D268F515555D53F01411DA96074D13FBC
:1037100065DBC9934A86CD3FEF4E454A287ECA3FB6
:103720003E5555555555C53F93BDBE166CC166BF38
:103730002CDE25AF6A56113FF16BD2C541BDBBBE31
:10374000D0A4BE726937663E000000000000000091
:1037500000404040404040404040414141414140A4
:103760004040404040404040404040404040404059
:1037700040050202020202020202020202020202E8
:1037800002202020202020202020200202020202ED
:103790000202909090909090101010101010101045
:1037A0001010101010101010101010100202020251
:1037B0000202888888888888080808080808080895
:1037C0000808080808080808080808080202020291
:1037D0004000000051370008474554202F74696DA0
:1037E0006520485454502F312E310D0A486F7374A0
:1037F0003A20796F75725F7365727665725F697072
:103800003A353030300D0A0D0A00000041542B4388
:10381000574A41503D225849414F4B414E47222C77
:10382000223132333435363738220D0A0000000099
:1038300041542B43495053544152543D2254435018
:10384000222C2231302E37302E3136302E3838228D
:103850002C353030300D0A00474554202F616374F9
:10386000696F6E20485454502F312E310D0A486F25
:1038700073743A20796F75725F7365727665725FE3
:1038800069703A353030300D0A00000041542B5336
:103890004C4545503D300D0A000000004154453074
:1038A0000D0A000041542B4349504D4F44453D31D2
:1038B0000D0A000041542B43574D4F44453D310DF7
:1038C0000A00000041542B534C4545503D320D0A2F
:1038D0000000000041542B43495053454E440D0A0B
:1038E0000000000041540D0A00000000504F5354E6
:1038F000202F7375626D697420485454502F312EF7
:10390000310D0A486F73743A20796F75725F736571
:10391000727665725F69703A796F75725F736572FE
:103920007665725F706F72740D0A436F6E74656EA8
:10393000742D547970653A206170706C696361749C
:10394000696F6E2F782D7777772D666F726D2D7575
:10395000726C656E636F6465640D0A436F6E7465A7
:103960006E742D4C656E6774683A200077617465DB
:10397000725F6C6576656C3D252E3266266C6174CF
:1039800069747564653D252E3666266C6F6E6769B1
:10399000747564653D252E36662674696D6573748D
:1039A000616D703D256C752673657175656E636517
:1039B0005F69643D256426636F7665725F73746129
:1039C0007475733D25642664697374616E63655F05
:1039D000746F5F77617465723D252E3266266D6F58
:1039E000746F725F7374617475733D256426736DB3
:1039F0006F6B655F64657465637465643D256426FB
:103A0000626174746572795F6C6576656C3D252EB4
:103A10003266267261696E5F6C6576656C3D252E37
:103A200032660000443A000800000020A8000000B0
:103A3000DC200008EC3A0008A80000200005000087
:103A4000EC20000800000000000000000000000062
:103A50000000000000000000000000000000000066
:103A60000000484188855AD3BCF34340FC1873D703
:103A7000121A5D404A78DA67E903000000007A43D1
:103A8000000000000000AA4200000000EC3800081E
:103A9000D8370008583800080C380008B438000837
:103AA00030380008A4380008D4380008E43800088A
:103AB0009C380008C43800088C380008000000005A
:103AC00000000000000000000000000000000000F6
:103AD0000000000000A24A040000000000000000F6
:0C3AE000010203040607080900000000B2
:04000005080000ED02
:00000001FF
